:020000040000fa
:10000000f0ff022025950100ef720100377b01000f
:100010007384010013870100eb8a010000000000d7
:10002000000000000000000000000000f1d301000b
:100030009b7f010000000000d1ad010039cf01001d
:10004000ff5b0100ff5b0100ff5b0100ff5b010044
:10005000ff5b0100ff5b0100ff5b0100ff5b010034
:10006000ff5b0100ff5b0100ff5b0100ff5b010024
:10007000ff5b0100ff5b0100ff5b0100ff5b010014
:10008000ff5b0100ff5b0100ff5b0100ff5b010004
:10009000ff5b0100ff5b0100ff5b0100ff5b0100f4
:1000a000ff5b0100ff5b0100ff5b0100ff5b0100e4
:1000b000ff5b0100ff5b0100ff5b0100ff5b0100d4
:1000c000ff5b0100ff5b0100ff5b0100ff5b0100c4
:1000d000ff5b0100ff5b0100ff5b0100ff5b0100b4
:1000e000ff5b0100ff5b010000000000000000005a
:1000f00000000000ff5b0100ff5b0100ff5b0100ef
:10010000ff5b0100ff5b0100ff5b0100ff5b010083
:10011000ff5b0100ff5b0100414201004142010021
:100120004142010041420100ff5b0100ff5b010011
:10013000ff5b0100ff5b0100ff5b0100ff5b010053
:10014000ff5b0100ff5b0100ff5b0100ff5b010043
:10015000ff5b0100ff5b01000000000000000000e9
:10016000000000000000000000000000000000008f
:10017000000000000000000000000000000000007f
:10018000ff5b0100ff5b0100ff5b0100ff5b010003
:1001900000000000ff5b0100ff5b0100ff5b01004e
:1001a000ff5b0100ff5b0100ff5b0100ff5b0100e3
:1001b000ff5b0100ff5b0100ff5b0100ff5b0100d3
:1001c000ff5b0100ff5b0100ff5b0100ff5b0100c3
:1001d000ff5b0100ff5b0100ff5b0100ff5b0100b3
:1001e000ff5b0100ff5b0100ff5b0100e1ce01004e
:1001f000ff5b0100ff5b0100ff5b0100ff5b010093
:10020000ff5b01000000000000000000ff5b010038
:10021000ff5b0100ff5b0100ff5b0100ff5b010072
:10022000ff5b0100ff5b0100ff5b0100ff5b010062
:10023000ff5b0100ff5b0100ff5b0100ff5b010052
:10024000ff5b0100ff5b0100ff5b0100ff5b010042
:10025000ff5b0100ff5b0100ff5b0100ff5b010032
:020000040000fa
:100260004e3674666c69746531304f705265736fc9
:100270006c766572450000bfc4cf010060020000cb
:100280004e3674666c69746531354d6963726f4fb3
:10029000705265736f6c766572450000f0cf010097
:1002a00080020000780200004e3674666c69746546
:1002b00032324d6963726f4d757461626c654f7057
:1002c0005265736f6c766572494c6a3545454500d9
:1002d000f0cf0100a80200009c0200000000000016
:1002e000d0020000e9e90100f3e90100d5e90100cd
:1002f000dfe901004fb1010081e7010095910000a5
:10030000bdc201003dc30100fdc20100a4bd00004b
:10031000a8bd0000b8bd0000c8bd0000d0bd0000f1
:10032000e4bd0000f4bd000000be000014be0000eb
:100330001cbe00002cbe000040be000054be0000e9
:1003400060be000080be00008cbe00009cbe0000ad
:10035000a4be0000b0be0000b4be0000bcbe0000e1
:10036000ccbe0000d4be0000dcbe0000ecbe00002d
:10037000f0be0000f8be000008bf000010bf000083
:1003800018bf00002cbf000038bf000040bf0000b5
:1003900048bf000060bf000064bf000080bf0000d5
:1003a00088bf00009cbf0000b0bf0000bcbf0000c1
:1003b000c4bf0000c8bf0000ccbf0000d4bf000015
:1003c000f4bf000004c0000020c0000024c00000f2
:1003d0002cc0000034c0000040c000004cc0000031
:1003e00068c0000070c0000078c0000080c000003d
:1003f00088c0000090c0000098c000009cc00000b1
:10040000a4c00000acc00000bcc00000c8c0000018
:10041000d0c00000d8c00000dcc00000ecc000006c
:10042000fcc0000004c1000010c1000018c10000a1
:1004300024c1000028c100002cc1000034c100000c
:100440003cc1000044c1000048c1000050c1000090
:100450005cc1000068c1000074c100007cc10000e4
:1004600088c1000090c100009cc10000a8c100002c
:10047000b0c10000bcc10000c8c10000d4c1000070
:10048000dcc10000e8c10000f0c10000fcc10000b8
:1004900004c200001cc2000028c200003cc20000d0
:1004a00048c200004cc2000054c200005cc2000000
:1004b00064c2000070c2000078c2000084c2000064
:1004c00088c2000090c2000098c200009cc20000d8
:1004d000b0c20000bcc20000c8c20000d8c2000008
:1004e000e0c20000ecc20000f0c20000f8c2000050
:1004f00010c3000028c3000034c3000040c3000044
:1005000048c3000054c3000064c3000088c3000057
:1005100090c300009cc30000acc30000b4c3000043
:10052000bcc30000c4c30000ccc30000d8c300009b
:10053000e4c30000f4c3000008c4000018c40000b5
:1005400024c4000038c4000044c4000054c40000a7
:1005500064c4000074c400008cc4000098c400008f
:10056000a8c40000b4c40000bcc400000000000027
:100570004e3674666c69746531384d6963726f4dbf
:10058000656d6f7279506c616e6e6572450000bf6b
:10059000c4cf0100700500004e3674666c69746546
:1005a00032304275696c74696e44617461416c6c7f
:1005b0006f6361746f724500c4cf0100980500003d
:1005c0004e3674666c69746531334572726f72525f
:1005d00065706f7274657245000000bfc4cf010082
:1005e000c005000008b10181b0b000840000000027
:1005f00008b10181b0b000840000000008b10181a1
:10060000b0b000840000000008b10181b0b00084e7
:100610000000000008b10181b0b0008400000000bb
:10062000b1d90000b0ab0c00ffff0110468c0700f1
:1006300000f00704ae080098082000008401018142
:10064000b00eb1000000000084020181b00cb100c6
:100650000000000008b10181b0b00084000000007b
:1006600008b10181b0b000840000000065d900002d
:10067000b0b0ae00ffff010f0c100000dc0104f071
:100680000100fa010400000080c90181b0a908b18d
:100690000000000080c90181b0a908b1000000007d
:1006a000c9020181b0b0ad8000000000c90c018119
:1006b000b0b0af810000000008b10181b0b000848b
:1006c0000000000008b10181b0b00084000000000b
:1006d00008b10181b0b000840000000008b10181c0
:1006e000b0b000840000000008b10181b0b0008407
:1006f0000000000008b10181b0b0008400000000db
:1007000008b10181b0b000840000000008b101818f
:10071000b0b000840000000008b10181b0b00084d6
:100720000000000008b10181b0b0008400000000aa
:10073000c92a0181b0b0af8000000000c92c01813e
:10074000b0b0af80000000003f1c0181b0af82c993
:100750000000000008b10181b0b00084000000007a
:10076000c90a0181b0b0af850000000008b1018165
:10077000b0b000840000000008b10181b0b0008476
:100780000000000008b10181b0b00084000000004a
:1007900008b10181b0b000840000000008b10181ff
:1007a000b0b000840000000008b10181b0b0008446
:1007b0000000000008b10181b0b00084000000001a
:1007c00008b10181b0b000840000000008b10181cf
:1007d000b0b000840000000008b10181b0b0008416
:1007e0000000000008b10181b0b0008400000000ea
:1007f00008b10181b0b000840000000008b101819f
:10080000b0b0008400000000a8020181b0b00eb1b9
:10081000000000003f000181b0b000840000000033
:1008200008b10181b0b000840000000084020181a1
:10083000b00fb1000000000099d70000b0af020077
:10084000ffff011a1a1c000046044a00560400006b
:1008500062024a00a001020000b001164a00000036
:1008600008b10181b0b000840000000008b101812e
:10087000b0b000840000000059d70000b0ac010007
:10088000ffff010c281a000066046c0072040000cf
:1008900041d70000b0b0a800ffff010008b10181fe
:1008a000b0b000840000000008b10181b0b0008445
:1008b0000000000008b10181b0b000840000000019
:1008c00003970181b0b008840000000008970181ff
:1008d000b0b009840000000004970181b0b0098421
:1008e0000000000004970181b0b0098400000000fe
:1008f00004970181b0b0098400000000b197018124
:10090000b00984080000000001970181b0b008849c
:100910000000000001970181b0b0088400000000d1
:1009200003970181b0b008840000000003970181a3
:10093000b0b008840000000001970181b0b00884c5
:100940000000000001970181b0b0088400000000a1
:100950000a970181b0b0098400000000039701816b
:10096000b0b008840000000005970181b0b0088491
:100970000000000003970181b0b00884000000006f
:1009800007970181b0b0088400000000039701813f
:10099000b0b008840000000039d600008420970120
:1009a000b0b0b009ff1019011136d0070000b0082f
:1009b00004f40901d2089e010000010000000000bb
:1009c0000a970181b0b009840000000005d600003c
:1009d00084019701b0b0b008ffff0100f5d5000019
:1009e00084169701b0b0b009ff1019011184010af3
:1009f0008e0101800266ec0200fa02040000010090
:100a000000000000cdd5000084079701b0b0b00809
:100a1000ffff010003970181b0b0088400000000cf
:100a200003970181b0b008840000000005970181a0
:100a3000b0b008840000000001970181b0b00884c4
:100a4000000000008dd5000084019701b0b0b00b0c
:100a5000ff1019010c0a06100118041c052e0c00c9
:100a60000001007f00007d00000000000000000089
:100a700001970181b0b008840000000008b1018135
:100a8000b0b000840000000008b10181b0b0008463
:100a900000000000f8b500bff8bc08bc9e467047d7
:100aa00061c201009de8010045e90100d1e60100b5
:100ab000f8b500bff8bc08bc9e4670473dc20100b7
:020000040000fa
:100ac000785d0000af1cb280006d00007cfcff7ff1
:100ad000c486000001000000649d0000af3f3e801e
:100ae000b4a7000001000000c0a700000100000042
:100af0001ca80000010000003ca80000b0a9028072
:100b0000d4a80000b0b0a88024a900000100000013
:100b100028a900000100000024a900000100000035
:100b200020a90000b0b0aa8054a90000ae71b28024
:100b30001caa00000100000018aa0000ab3f38808a
:100b400070aa0000010000007caa0000b0b0aa80da
:100b5000b8aa000001000000c0aa000001000000c7
:100b6000bcaa000001000000c0aa000001000000b3
:100b7000e4aa000001000000f4aa00000100000047
:100b800018ab00000100000028ab0000ab0eb280e3
:100b900090ab0000b0af088050ae00000100000034
:100ba0004cae00000100000048ae00000100000053
:100bb00044ae0000ac3f03805cc1000001000000b7
:100bc00058c100009cfbff7f08d40000ccfdff7fd4
:100bd00008d90000b0ae0180a8dd000044faff7f14
:100be000fce10000af3f1480c8ed000001000000f0
:100bf000f8ed0000008404800cee0000010000000d
:100c000008ee0000b0ad0480c8f00000b0a803807a
:100c1000e8f0000068feff7fecf000006cfeff7f54
:100c2000f6f0000001000000f4f0000001000000f8
:100c3000f4f00000b0af0e8064f70000b0af328077
:100c400080fa0000b0af2e8098fd0000f0faff7f20
:100c5000a400010001000000a4030100d4faff7ffa
:100c6000a0060100b0af0480340f010040faff7ffe
:100c7000b8110100b0af0a80bc160100b0af0a8005
:100c800028190100b0af0a80901b010014faff7f01
:100c90001c200100b0ab0280a02c0100010000006c
:100ca000782e0100b0af108044300100b0af128048
:100cb000d0330100010000003c370100b0af1c80c0
:100cc000e8380100b0af1080e43d010010fdff7f67
:100cd000643f0100b0af0480cc400100b0af06809b
:100ce00094430100b0af04804046010064fcff7fe4
:100cf00088470100b0af0280cc480100b0af04804b
:100d0000104a01000100000024500100ab08b1802e
:100d100048510100b0b0ac80a0540100b0ae0180d9
:100d2000d0580100b0b0ac80d059010001000000e3
:100d3000d05a010001000000dc5d010030f9ff7fa6
:100d4000d85e0100b0b0ac80d0620100ac80c98038
:100d5000c06301006cfcff7f98650100dcfaff7f37
:100d60005c6701000100000014690100b0ac018063
:100d7000046d010070fbff7fc06d0100b0ae01800b
:100d8000786e0100dcf8ff7f2c6f0100b0ae0180af
:100d90009c700100ad08b1804c710100ccfbff7f5d
:100da000fc71010001000000a8720100b0ad0280da
:100db00054730100b0b0aa80b474010058fcff7fe6
:100dc0000876010001000000fc770100af08b18047
:100dd00044790100b0b0a880847a0100b0ae0180ef
:100de000c47b010094faff7f607c010018fcff7f48
:100df0008c820100a908b1801c830100a908b18080
:100e00004084010084f8ff7fcc84010001000000d1
:100e10005885010001000000e4850100b0ac0180ac
:100e200070860100b0af02808c87010001000000d5
:100e300014880100b0ac018098880100b0ac01803a
:100e4000b48a0100af08b180308b010001000000be
:100e50002c8d0100b0b0a880a48d0100b0af02803d
:100e60001c8e0100b0b0a880948e0100b0b0a880a4
:100e700008900100acfbff7fe691010004fbff7fbf
:100e8000c8920100b0b0a88034930100b0b0aa802d
:100e9000a0930100b0ab04800c940100010000009d
:100ea0007694010001000000e094010001000000c0
:100eb0004a95010001000000b49501000100000006
:100ec00070970100b0b0aa80d897010000f9ff7fa9
:100ed00040980100ab08b180a8980100ab08b18030
:100ee0001099010001000000789901000100000044
:100ef000289b0100b0b0ae808c9b010064f9ff7f9d
:100f0000f09b010068f9ff7f549c010038faff7fd5
:100f1000b69c010001000000b09c0100a908b1804e
:100f2000109d0100af08b180709d0100010000001c
:100f3000d09d010001000000c49f0100b0a8038003
:100f400020a001000d8401807ca0010001000000b0
:100f5000d8a00100b0b0aa8032a1010001000000b9
:100f60008ca10100d4faff7fe6a10100010000007e
:100f7000a0a201000100000014a401000100000073
:100f800068a4010054f9ff7f6ca501000100000076
:100f9000bca50100010000000aa6010030f9ff7f96
:100fa00058a60100b0a90280a4a60100b0a809803b
:100fb000f0a6010084f9ff7f90a70100b0b0aa80dd
:100fc000daa701000100000024a8010001000000d0
:100fd0006ea8010001000000a8a90100b0b0aa801d
:100fe000eea9010001000000ccaa01008cf7ff7ff0
:100ff00010ab010001000000a0ab0100b0aa01800d
:10100000e2ab0100b0b0aa8024ac0100a908b18015
:1010100040ad010080f6ff7f80ad010001000000bf
:10102000c0ad01000100000000ae010094f8ff7f98
:1010300040ae0100d4f8ff7f80ae01000100000047
:1010400098af0100acf8ff7fd6af0100e0f9ff7f59
:1010500058b0010001000000d8b00100b0a9028022
:1010600014b10100b0b0a8804eb101003cf8ff7f80
:1010700088b1010000f9ff7fc2b10100010000004a
:101080003cb201000100000074b20100a908b18067
:10109000acb2010001000000e4b20100a908b18077
:1010a0001cb301000100000054b301000100000066
:1010b0008ab401000100000074b50100b0b0a8803e
:1010c000a8b5010001000000dcb50100b0b0aa80a5
:1010d00010b601000084028044b60100b0f8ff7f22
:1010e0002cb70100010000005eb7010058f9ff7f36
:1010f000c8b70100ab08b180f8b70100b0b0aa8052
:1011000028b80100b0b0a88058b80100b0a902808a
:1011100088b8010001000000b8b80100010000001b
:10112000e8b801000100000050b901000100000012
:101130007eb901000100000074bb01000100000045
:101140009cbb010001000000c4bb010010f8ff7f40
:10115000ecbb01000100000074bc010001000000b4
:101160009abc010001000000c0bc010001000000a9
:10117000e6bc01000100000018be010080f4ff7f02
:1011800094be01000100000068bf010000840480db
:101190008abf01000100000024c001000084028019
:1011a00044c001000084068064c00100b0ab02802e
:1011b00084c0010060f6ff7fccc001000100000088
:1011c00014c1010038f7ff7f5cc10100010000007d
:1011d00080c10100010000009ec101002cf6ff7fcc
:1011e000bcc1010001000000dac1010034f7ff7f3b
:1011f00090c2010001000000acc20100a908b1804a
:10120000c8c20100a908b180e4c2010001000000c9
:1012100000c30100010000001cc3010080f6ff7f35
:1012200038c30100b0b0a88054c301000100000021
:1012300070c3010001000000b0c301000100000004
:10124000ccc3010001000000e8c30100e0f6ff7f0d
:1012500004c401000100000020c4010001000000de
:101260003cc40100010000007cc40100010000003a
:1012700098c4010001000000b4c401000100000096
:1012800018c501000100000034c501000100000084
:1012900050c5010001000000b0c6010001000000bf
:1012a000cac6010001000000e4c60100a908b1801f
:1012b000fec601000100000018c70100d4f5ff7f41
:1012c00096c7010001000000b0c7010018f3ff7fbe
:1012d000c8c70100a908b180e0c7010001000000f3
:1012e000f8c701000100000010c801000100000063
:1012f00028c801000100000040c8010001000000f2
:1013000058c801000100000070c801000100000081
:1013100088c8010001000000a0c801000100000011
:10132000b8c8010001000000d0c8010001000000a1
:10133000e8c801000100000000c901000100000030
:1013400018c901000100000050c90100010000009f
:1013500068c901000100000080c90100010000000f
:1013600098c90100010000004eca0100d0f2ff7fc1
:1013700064ca0100d4f2ff7f7aca0100b0a90280da
:1013800000cb01006cf2ff7f14cb0100a908b180f3
:1013900044cb0100c0f2ff7f58cb0100b0b0a88061
:1013a0006ccb0100b0b0a88080cb01000100000030
:1013b00094cb010078f4ff7fc4cb01000100000052
:1013c000d8cb010001000000eccb010001000000bf
:1013d00000cc01000100000014cc0100010000005d
:1013e00098cc010000840280aacc0100010000001a
:1013f000bccc0100b0b0aa80cecc0100010000003e
:10140000e0cc010001000000f2cc0100010000006e
:1014100004cd01000100000016cd01000100000014
:1014200028cd0100010000003acd010001000000bc
:101430004ccd0100010000005ecd01000100000064
:10144000bacd01000100000014ce0100010000002f
:1014500024ce0100c0f4ff7f34ce01000100000063
:1014600044ce01000100000054ce01000100000044
:1014700064ce01000100000074ce010001000000f4
:10148000dcce010000f3ff7feace01000100000086
:10149000f8ce01000100000006cf010001000000ad
:1014a00014cf01000100000022cf01000100000064
:1014b00030cf010018f5ff7f3ecf01000100000092
:1014c0009ccf010001000000a8cf01000100000036
:1014d000b4cf010004f3ff7f10d001000100000031
:1014e0001cd001000100000028d001000100000014
:1014f00034d0010001000000e6d00100010000002e
:1015000010d101000100000018d10100acf1ff7ff3
:1015100020d10100b0f1ff7f28d10100b4f1ff7f9d
:1015200030d1010000f2ff7f38d1010028f2ff7fa7
:1015300040d1010038f2ff7f48d1010084f2ff7fe3
:1015400050d10100a0f2ff7f58d10100b0b0a880b7
:1015500080d101000100000088d1010001000000dd
:1015600090d101000cf5ff7f98d10100088497808d
:1015700010d201000100000016d20100010000009d
:101580001cd201000100000022d201000100000075
:1015900028d20100010000002ed2010000f2ff7fde
:1015a00034d20100010000003ad201000100000025
:1015b00040d201000100000046d2010064f2ff7f2a
:1015c0004cd201000100000052d2010001000000d5
:1015d00058d20100010000005ed2010001000000ad
:1015e00064d20100d0f2ff7fb4d2010001000000fc
:1015f000b8d20100e8f0ff7fbcd20100ecf0ff7f21
:10160000c0d20100f0f0ff7fc4d20100f4f0ff7ff0
:10161000c8d20100f8f0ff7fccd201000100000029
:10162000d0d2010001000000d4d2010064f1ff7f9c
:10163000d8d2010074f1ff7fdcd2010078f1ff7f86
:10164000e0d20100acf1ff7fe4d20100b0f1ff7ff6
:10165000e8d2010001000000ecd20100010000000e
:1016600074d301000100000076d3010001000000e6
:1016700078d3010094efff7f7ad3010098efff7fca
:101680007cd30100010000007ed3010001000000b6
:1016900090d3010084f0ff7f90d30100010000008f
:1016a00090d3010001000000e6d30100010000001a
:1016b000e4d3010001000000e2d3010001000000ba
:1016c000ded3010001000000dad3010001000000b8
:0816d000d6d301000100000067
:020000040000fa
:1016d800d0ec012004000000010000000000000020
:1016e80004ec01201c00000000000000f8ea0120c2
:1016f800380000000000000030eb01202c00000042
:1017080000000000b0ec012008000000000000000c
:101718005ceb012028000000000000003ce90120eb
:10172800a00000000000000084ec01201000000070
:1017380000000000b8ec01200800000000000000d4
:10174800d4ec01200400000000000000d8ec0120c7
:101758000400000001000000aaaaaaaadcec0120eb
:101768000400000000000000a8f1002000a0000014
:1017780000000000e0ec0120040000000000000070
:10178800e4ec01200400000000000000e8ec012067
:101798000400000000000000ecec01200400000040
:1017a80000000000dce901206400000000000000e7
:1017b800f0ec01200400000000000000f4ec01201f
:1017c8000400000000000000f8ec01200400000004
:1017d80000000000fcec01200400000000000000f4
:1017e80000ed0120040000000000000020ec0120b2
:1017f800140000000000000034ec01201400000078
:101808000000000004ed01200400000000000000ba
:1018180008ed012004000000000000000ced01208c
:10182800040000000000000010ed0120040000008a
:101838000000000048ec0120140000000000000037
:1018480014ed012004000000000000005cec012001
:10185800140000000000000070ec012014000000db
:101868000000000018ed0120040000000000000046
:101878001ced01200400000000000000cfe701205b
:101888000100000000000000a89101209c4c00000d
:1018980001000000f8c001001800000054464c3355
:1018a80000000e001800040008000c0010001400ce
:1018b8000e00000003000000184c00000c0000009f
:1018c800100000002000000001000000204400007b
:1018d8000f000000544f434f20436f6e76657274bb
:1018e80065642e0011000000f4430000a4430000ca
:1018f80084430000344300002c4300001c420000d5
:1019080014420000040a0000d4090000c4010000c9
:10191800bc010000b4010000ac0100001c00000084
:10192800140000000c0000000400000024b6ffffb3
:1019380028b6ffff2cb6ffff76b6ffff04000000b5
:101948008001000013008abe507c493eb4065abc90
:10195800a6f2a8bd7350623cdd0a4abee2779c3eff
:101968008be0c7bdb2fdf53d13b1b2becd785abd0f
:10197800fb154ebc587b3b3e144b22bc7e44d23deb
:10198800dcda723c1a87d93d3edc133d011e75be78
:101998003d4f6abda65254bec77f5fbe975f35bc38
:1019a800c5845bbe7cd56fbd909b30bd5286ecbcb8
:1019b800c04e0bbffc3decbd9271263e3426333d34
:1019c8000668fcbd545f2fbda2cedd3d836a76bca0
:1019d80064ba95bd4469093eea7b083eec139fbd95
:1019e800802a04be64f5843e31f8b4bdfa18b3bd4c
:1019f8004b3df9bcee0e8fbd3b2139bc35a0bbbcbd
:101a0800d55fbebd9ec40b3d4a8d82be01fb19bd8c
:101a1800b051ae3cb5d868be9745733dc7332a3e32
:101a28009f82093e3236babd930d7ebbc25fa6bd0a
:101a3800132055bebf0308beebe0a9bdf64accbdd6
:101a48008ff628bd29e0813d929d65bde3b6173e1e
:101a58005307a6bcba443cbb056336bce14523bd6d
:101a68000e10083deee5773ef2e476be6145bc3dda
:101a7800daebe43ed4e1bcbd0e179abe2a52bfbed3
:101a88007190913efbfa6bbddb52683e7ffb493d8e
:101a9800d78a5a3d205809bec474d73d3b3ee8bc9e
:101aa8004592e0bc6d8eb8be245232bd6d5a853e5b
:101ab800b4c1afbc0edf1abec8d18ebe95bab2bdd6
:101ac800e69d7e3dbcb7ffffc0b7ffffc4b7ffff71
:101ad8000eb8ffff04000000000800006515073e6f
:101ae80019c005becbe0b83dbc817dbddbaccb3dac
:101af8002809a93e16589dbe1ec4d2bd872edb3dbf
:101b0800d2dc80bddc90413deb0b5abe4a91a2bcb1
:101b180093ff81bb5fb48ebd88ba5cbd7b71ef3c1f
:101b280046e54dbf3a1f96bd4d39a1bfe46325beba
:101b3800c11ba9bdba0288bdd8cf75be5342fabd34
:101b4800ddc5a5be0a0421beab3c88bf2e1f50be12
:101b5800c8b7e2bd71edd53e0cf300bdae1e3e3deb
:101b680029f091bd72f619be29b628bd24a203be7c
:101b7800e9cc83bd4a72173df7e0bebcd87d59bd9c
:101b8800a1c0053cf0cd51befdb615bda1240a3d4e
:101b98009e1422bdb7881a3f615e353e908c7cbc8e
:101ba8000d7a71bf3585b8be382011bf300162bfcc
:101bb800ce2864bfab4d87bd97bdebbdbd543f3e3e
:101bc800910b9f3e6b125bbe31a1f4be37c285be3e
:101bd8008a6a61be7ca046bc6b1e16be8d2caebd4b
:101be800bb9b20bd96538cbdb63a93bdf858b1bd8a
:101bf80046f3ddbd5f9ba1be6780b83d774fd4bc7f
:101c0800c954ba3e1c0e20bdf50c5f3e76bffbbd25
:101c1800fde5cfbde5a78abe3e475abd275ee83c35
:101c28004d54fc3c0b664e3d4f28983d159187bda1
:101c3800570944bd98b634bee5899e3ddf9ae43b1a
:101c4800b63c2c3e1fe07a3daba41a3eea68ddbde7
:101c5800606aedbdf52237be931c813edadd2f3e6a
:101c6800fd910bbc9acefcbd3a51f73de505963e79
:101c780096119fbd6979cabd6b200d3d837f353da7
:101c8800ce145e3a37ce5ebdc5f1353ec49bc4bda9
:101c980085bc4bbe89789abdcc0f963edae4eebd82
:101ca8007d4b7abdb9c30e3e6c9abbbdd0a211bfa5
:101cb80000e57abeae1bd3bd822f483db3894ebe28
:101cc800d83026bdffa7033eff7280bef2e690be65
:101cd80044f8943d3be88dbd09c694be78fe783d36
:101ce8001a3944bec292f83b761f18be4bfbbebde4
:101cf800dc05183f3f5a93be8cec94bd80007bbd39
:101d0800830d01be889a863dae8225bee0c3e3bd41
:101d180080d81abeb9659cbe31ae3dbe02a7fbbdd8
:101d28001cf685bee7e5563dc4c34b3e61ca8fbe6f
:101d380041ca0dbe716185be23cf053de993c8bd7b
:101d48008ac2dabedbbd0c3d487f5abf7935bbbebf
:101d5800e73120be8136843e36721ebed10b56bd99
:101d680092c1063cab4d91bde11c1fbdf766723eaa
:101d780034bf573cb96df93decb4febcc1365d3d8e
:101d8800ef442b3de34980bca4e260bd16b8a9bc72
:101d98001d4ea5bde49f543e0fe125bdbf92e23d17
:101da800aa39383db742e73d3d384a3d73bc52be7b
:101db800edb324beba9addbeedfca63df1b50a3ef0
:101dc8000d2515bdc1ceedbdd85d5dbd2d1552be2d
:101dd800a9584bbe1c979f3e4d40babd41ba8a3d9b
:101de800b88d34be0475c9bd5e5899bde0ed47bed7
:101df80083f793bc673449be10bc5ebe3ca1a63dc8
:101e08007daf82bddff934bd5c0282bdb70d90bde8
:101e1800642ed4bd82eab3bd0ddd89bdf285a43937
:101e28000377d3bd439abfbdcea8a7bda94238bd8d
:101e3800e0117ebd1156333e06510fbd1c88f8bc1b
:101e4800f103b23edb70383d726871bd242f01bdcd
:101e58005ec0373d0ec6ae3e80252a3e17ee35be23
:101e68005877223cb02b713d5e6f073e610b16bd63
:101e780049568b3d404d83be0390243e904915bd85
:101e880065a5d2bd1e47603e4e30a2bd5ac3e63c92
:101e980013d6003e4e6635be8fb9c1bdd16f903e98
:101ea800158038bea16037be6b4203be1ef111bd5e
:101eb80015f10dbd926437beba4542bca3483a3eff
:101ec80026584abea8089bbe043af8bda73d2fbdb8
:101ed8009f78d9bdc06bac3d8c68d9bb337bf5bd51
:101ee80061ebd6bdf53de8bd0d30dcbd5ecf5ebc17
:101ef800320e2b3d46ad2b3c199117be311c28bd27
:101f0800fce540bc76e81ebe007fe1bc8fc2a93d5f
:101f1800d10516bc94f80f3eec9205be5dc27f3d1c
:101f280039db83bcef1e27be70a7ed3dc828873d6f
:101f380095d517bc34baba3d47dfe5bd99a7703ec1
:101f48000582593d3a5401bebb90a43e8b70823d38
:101f580085f13a3c13d2b8bbd47967bde76604bfb4
:101f6800002ad4bdefb8e83d34c737bf281382bd77
:101f7800186f8cbd5e9b8c3d0d393dba1c4140bf2e
:101f88000d81bfbccc2088bd9e1732bff52cbbbcd1
:101f9800df7c883ebcfa773d0939473dc2016ebff8
:101fa800a19346bef5929fbcc05e02bf7433ab3da1
:101fb8000d665d3d0239bcbcbe1d2a3d6d7b55bf1b
:101fc80034ff4bbeba10223edb9ff8be6d59643e0b
:101fd8006c3f623d11f883bbb8f2f2bde1e8b1bcd9
:101fe800a0ecfb3c0618b9bb57b4f23db9d224beed
:101ff8008e7784bd45f8603d4a83903eee8dab3dbb
:102008005305fc3df3e0073d822cec3d4c825abd64
:102018006b30a1bd2770393e7eb305bde32ff03d7f
:10202800c0db7ebfafb2ec3c4de67fbf60b0b0be58
:10203800a089e1bddedf65bbdfe8d4bd33b007bdf5
:1020480065fe8d3dfca0e53c5d9ec6bf48581dbfa2
:10205800de0a1bbd3e0884bd4e3c90be7f924b3dc0
:10206800973aa63e607cd53cf38f0dbde40b163e37
:102078008e518d3eb4ab8cbd1c39b43d3e15973c9a
:10208800404e7dbd1f14493c7b76193cf08ee2bc66
:10209800bf432fbd501940be1d4b083d3531d63bbf
:1020a800f56073bed17e1e3ddccb01bdf47643be28
:1020b800f4f1aabd1a7c61be5ce5e33cca201bbdf5
:1020c8007090babe85ce8ebc651292be437695be20
:1020d8008eb3e0bdced767bdf459753d636048bd8a
:1020e8009e67b1bddd997bbd110411bdcb620abdf0
:1020f8000a963d3d89edb5bc4a5a5c3e4d75423c59
:10210800e63d95bd306e76bc46769cbdc1de3fbcd3
:1021180061de863dda7a42bd3c0740bbd2da6c3dcf
:10212800da028abd8b019bbdad5f96bda9a122bc19
:1021380086148dbde25a2bbdcf711cbd6b79e83b6f
:10214800b1030fbdb2cfc03e69bf93bd9093cbbb67
:10215800b302633ecd01fdbcee4589bdda2c3f3f9d
:10216800e6f650be9338d9bd0739e3be25e014bd65
:10217800abcf9a3d8ac922be71679abe4b9b9abd66
:1021880065cf3cbe21efa7beaf6e2cbe00c93e3e58
:10219800a1cff3bc6afec4bc9c98d9bda8d515be16
:1021a800ef180cbecb6c7dbe1edcee3dba96903ba4
:1021b800a411adbdac6f2a3e79bbeb3d4ff4a5be73
:1021c800ff82a1bd6f360ebeb8e2af3ded0526bd5c
:1021d800515e0abe48aa183d3793103ed745bdbc8c
:1021e8001689cf3dd317443edf896ebdb1c19ebe6f
:1021f8009f9c48be4f846bbdaeed1b3e48b3efbc01
:1022080033b19a3d00f4fe3a456e93befacd18be3e
:102218000c068fbdb978dabc3a7f61bef43e853ec4
:102228009254c6bc92a3b23ddad83fbe8f01433e5a
:10223800f1630abceba811bd48bef0beb672253edc
:10224800e32bcbbd550e49bdd3049f3cf094fa3d1a
:102258009ef14e3ce40612be139b0bbee35936befc
:102268000f2a0d3c2658efbd44e020becdd41cbe3d
:102278002b21a2bd9076013e13acfe3d70ecb9be99
:1022880044de713e04dd563ce1b11bbef59ef3bd54
:102298004be2a6bcc485dcbde004243e19786ebec2
:1022a8005a56c23d059e4abd890e60be76d13abdda
:1022b80069da153d7791b2bebc64e1bd418e86bd39
:1022c80095f4b03dca6bd23e85d7e5bd5b41b93bbd
:1022d800f3e75d3d881bd4be41f244bc1ac0ffff42
:1022e800040000002000000074f028c0a17a833c9c
:1022f800de1a9dc00a33acbf7e4eb6be86a2e1bfd1
:1023080043c521bfd3ea4dbf46c0ffff040000000c
:1023180000380000516508be6a728dbe28ac143db5
:10232800bbe8abbc08cee43d978a3f3db9b398bd46
:10233800ffb091be040e863ca3c9c5bde2835ebc56
:1023480068d2fd3a9076a7bd7580ccbd7de2a4bc6d
:102358006060b73d877de6bd02edf7be7fb1a53b66
:102368007282fdbd3a888f3e59933e3dc7a3f5bea4
:10237800fedb79be207c2dbdcb1e083e084e8cbef0
:102388005f570fbef7e048bed516a7be30ea47bd77
:102398003ee5013e28bb9abea41aaebe1907003c12
:1023a8006f9be0bd27ba713e86a0a73c95caf8bcd2
:1023b8005bf5e0befb518cbb9e2f523d111d07be45
:1023c800edea0ebf520fa3be16d8b0bebaf085bd57
:1023d80060c0313ece94b53dd906c2bdddd7673c5d
:1023e8005c4b85be62c30b3e8ab484bca71ce3bdac
:1023f800c45f1fbf5cf82dbc71ad533dabd845be63
:10240800b47deebe17029bbe718b32beca9082beef
:10241800a6a0543dbcd11e3bbbb7213d639b253cc8
:1024280033f680bec078d8bdd1e1853d79c64abeb5
:10243800f230a5be4a825fbc6ded27be73705dbdec
:102448006cc18bbe8b5bd0bea756c6be8be3cdbd21
:10245800214a0abf1e33bfbd2c168fbe4fdf3e3c3c
:102468006c996ebe2da323bfe44a7fbd8bb0473d58
:10247800a34b06bfec519d3d6fffadbe2b116cbe4b
:10248800e13bc7be881c8bbeb983e6bdd8b8f9bd91
:10249800f16539bf6c6f4a3caa1c81bec8752fbc58
:1024a8004870e6bc853025be661610beda332ebdf0
:1024b8008ef8a73c937d3b3d9e08ebbefd391b3e45
:1024c800ced4bd3dca9a25be0f1b56be782b3ebd45
:1024d800eecd5cbee1bf4a3e2966d63dad7c7e3d71
:1024e800f445e1bcf316723ea53922bd091312bdad
:1024f8000ca7a33c770ca03dfb8683bef902133dd5
:1025080014f6103e2cd683bb67da293d2b11b6bdd5
:102518001cb696bc1aba473e8686493ec17fc53c62
:102528001cecb33c6fc9b23d7bfd7c3c5b57513d15
:10253800d190f23de21f8ebd9445e2bd4f30383d4b
:102548000efb703dcf37093dbdedb4ba834989bc58
:10255800f3c236bdf62e4b3d551b4f3d01a408beb8
:102568006b3b6d3c3cc82e3e7e71d9bd3582e33c49
:10257800eacd153d7eda5dbeb35e8f3c199b173ef2
:10258800f59c173e648dd2bdfe03d23878671ebd18
:102598001e8449be0192f5bba884643d1245943c53
:1025a800bea52bbc95c695bddece66bdbd155ebd70
:1025b800e12dcbbe6b78dc3db2b9af3ce95bcd3ddc
:1025c800eedb7a3d54073b3dd6c43dbe3a390fbedb
:1025d8006697e3bdfc199abd6e942cbe8680053eb5
:1025e80084c63bbcaeeac23d8cf1b53d80e55fbd1b
:1025f800e667c13dad07b33c64b5f63d34ddb13e99
:10260800b2a3b6bc85882c3e504ac0bebb1dd1bd06
:102618007141d43b80f48bbd2887113eee2ec6be97
:10262800ca0d0a3dbd9e893d7421aabd3104293dcc
:10263800c1ec3b3da0dde5bd2f36d03dc2c1a63e75
:102648005583f13c7310483e885ac5bc588f333dba
:102658007f90d2bd48f82e3e9363b2bef3649fbf0d
:102668003d5d74be04ac963ead8dfcbd32e065beea
:1026780016661d3d08f3623ce522153f19c39abe54
:10268800f4ee703d38a6913e07c3e3bd3c7d94bc93
:10269800e65b0f3dd813293eec5fbb3ebc9f473d30
:1026a80065e7863eecbe183e00cc653d7425a03e2d
:1026b800be34833eb729d43b0fab833b1da0e03e1d
:1026c800e698493e99a2da3ea091913cf3b5673e5f
:1026d8002c0b103eb850c53ea3bcb43ee7ab8cbd36
:1026e800c342523d36c7963e80657d3e93b561be76
:1026f800580fc03da392ba398ca39bbd9035aa3e12
:102708001ad9133fa5ac303e408065be9faae43d70
:102718008d202e3c2b0ab6bded8b683e5d453abc3c
:10272800eeda643e350fa73d3e005d3e4acb91bdd3
:1027380058880cbebd7dd7bb1170e2bd1e32c93aa8
:102748001ca76cbe7e60ec3d8dc8a2be209b043edb
:1027580051ff84bee613963c820082bd5e93603cc6
:102768007fa2e03cee3e00bebed5853ef6d6cb3d10
:102778006d2f21be318c073da368893b01371cbef4
:10278800348798bdffae463df4c591bed0c939bd6a
:102798002ea18dbe3d098abe0d34c23d5937833cfa
:1027a800a23d2f3e0a4722be5fa9213da857e9bb9b
:1027b80048f6e6bd1aa2793cfc3a25beff7c293dc5
:1027c8003ae314bcf2a1eb3bfaa12fbec3d9583da2
:1027d800177baebeb6b788be83c0dcbd4ee126bb54
:1027e8009b145f3d03836c3d2cac733e970020be69
:1027f800845709be7c88ec3d92fa8a3da4b51dbd7c
:102808004273e6bc7a13933daf278bbe5563a9bcd0
:1028180087886bbeea5479be768b2e3d5e9c5f3a04
:10282800b702fe3ddcc1f6bcf8193d3e142b15bebf
:10283800048547bebbd124bd2e79943db1d110becd
:10284800ac7064bd7fa37a3cf9d92abe365a9d3d47
:10285800b0eb1bbd55e956be0b0522bea1c79ebdf8
:1028680062aa0a39778f86bee424e23d67b9a0bd23
:10287800a2eddbbdd9de2a3dbb019dba9bff103d11
:10288800fbe6d33cfc632a3d44961cbebfddb5bcc9
:102898007dca78be348b36be93d198bc79d8d63be6
:1028a8009ce9843d76d679bd52533abddf1518bdf3
:1028b800310e2abec4ac193dc794a93d2d0168bc90
:1028c8000538bbbdd4e54a3d827e29beb74a0bbd5b
:1028d800ae9a54bd0bf37fbefa9042be891309be6f
:1028e8003c22413d44a986be606eda3d513e1abe87
:1028f800888f22bec7bb4f3d20cf213ec0fcdcbd28
:102908005ae013be9fe768bd6767a9bde354633dfe
:102918002c900ebe0ecf023c6af8f93cff146ebd37
:10292800735b263d1b87eabd7886b23c556606beba
:10293800077e10be26f77f3dcf1dfa3db33b40be54
:102948008c813e3cfba506bef05078bdc12e07bd6c
:102958007017b4be21cfb5bd293ed2bc546832be73
:1029680053b0bf3d5a5bba3d6581b1bdc5b82abefb
:102978004e7665be0d3117bc94640b3eb21137be5e
:102988009baae0bced6e2cbcf17349beff4c7dbc2c
:102998005cc4c3bdb58501befa7da8bd46f8fdbdc2
:1029a80048177ebc7cf974bee92602bc48504bbd72
:1029b800b32663be2892a23defa58b3d48ae0fbe5d
:1029c80059b5783d50dcb13d16c13fbe5d989dbc00
:1029d800d351043e6ea4743be011a83ef7f27bbdd0
:1029e800bab4fe3c1fd549bc9d07663e5c6ec3bbae
:1029f8009c2d303e3bb0963d31f122be8a028b3e83
:102a080018912c3d33e5183e712f04bdccd1233fde
:102a18005b92163eb4ae49bdf18d0a3e9e4b743aa8
:102a2800a36c533daf2e853d5777623d707be9bd62
:102a38005c0c2bbdf46e2abc57ae03be057c6c3d06
:102a48000247863c5ce202bc20f53e3ef8b1923d6e
:102a58003ba086bc636da0be3509423e8ae990bca6
:102a680072d0e5bd4f52773e12abe1bd812ad3be8d
:102a7800386b80bea1fa313dd6968bbda33c4dbec6
:102a88003e266b3c6a87d6bd884ac1bbd125c23c6d
:102a9800be9e893e4c00c6be809e5bbd7f49c83c39
:102aa8009f06723db70d503e3ae643bd9a90bebeb2
:102ab800c67a62be974347bd306f86bc7260b2bead
:102ac800218295bea8f22fbea9b6b3be92ea9ebcdb
:102ad800d4685f3d16c7c6be5bcc67bef196b33cf3
:102ae800bdd6adbc8017033c074c12beb73626bf17
:102af800d18aafbe996eabbce2912e3df240a3be27
:102b0800423eb7be33dfe4bdaaf57bbe8423c73a95
:102b1800e8fb643c9bd5bc3c80ed08bd0500803dce
:102b28009d1e2dbe5c743e3e0a27013ec48ee93cc4
:102b380055a26c3d9763b4bd7a18a9bd6bf871bef8
:102b4800f53621bfaf92a8bdeac503bfadec0dbdf8
:102b58002ddbadbd987834be924fe53e19b859bb10
:102b68007a8167bed45dc4bd0838dd3c38c2053df6
:102b78002d51bcbd7c64afbc66f06dbe9f6b4b3df8
:102b8800b9a336bfb53514bd9b8fd5beff9a113d8d
:102b9800290c97bc5ac6b8be7eaba5be295c9c3d25
:102ba800f51dbabebf2947bda868c7bd5da8b8bd99
:102bb8002c5c3fbe19e410be6add1ebe7fd576bd13
:102bc800a9fe16bf8710adbc260516be34d577be44
:102bd8007794fb3de49d3b3d59a79cbd949103bb75
:102be800d857efbe1b23a03db67f69bddb6fa0bce5
:102bf800882c77bd0eb54bbea371de3ce04620bee7
:102c0800fde285be1ae28f3dd4210bbf6174c6bcbc
:102c1800db3c9c3d13be39be2b194f3d654b59bd5e
:102c28000da447be3ead8e3ece5fe8bdf482e7bd43
:102c3800ec7bba3d16949cbe457a483c17d6adbe8f
:102c4800046b143ee69c0a3eeafe99be4ce43cbd89
:102c5800fd982e3e31f35b3e6cce5f3ed435e9bb2a
:102c6800b35180be9fde843e5dafd8babf58323db7
:102c780096b7343d751d7bbed43dd0bd51f9a0bd7e
:102c8800957a313dba85b53c5ee039be7dbcdebd86
:102c9800fc54573d2122543ef0ab143e2250fdbd5a
:102ca80080951dbe2b71b63e8887783d75d9dc3d71
:102cb800a806333d08e0b9bd631efbbd0e1f993c55
:102cc800a591ac3dd3f7653da4976abcda99a2bd3e
:102cd800541b433dc9ed1d3e9f4e793e063b2e3c9d
:102ce800760059be5b29663ed2ad86bbf19cc33dda
:102cf8003962e73d4895143e667bb8bc9edb273cad
:102d080008f3143ecc2032bd5ba54bbcd1a46cbdee
:102d180006ee8d3dde1a023e4884053e9fa2223d06
:102d2800b4e897be9fae103e4000443d15f7213ee3
:102d380063068e3c1986ca3dbba3a03d666f1b3e49
:102d4800ecb31e3d3e2f5abc3b1501be5a6c01be6a
:102d5800f2a88bbeca27993bf91bf8bad264343d56
:102d680022ee28bd8cda16becac63eb951c4883eca
:102d7800bc01083e89e1823e029a86be72130f3c6e
:102d8800cb5d7dbceae389bdd7c307be1aca47bd80
:102d980045ab62bdce312dbd9659a43db1a19a3b3c
:102da80028f78abbe3feb63c550939be58d0edbdbd
:102db800b781c2bd7da920be6ad705bd2c2e683d4e
:102dc8001dba88bc19874f3c2ba233bb321700bef3
:102dd8000841d83c802c8d3dc958ccbd33970cbeda
:102de800f58b44be45d4303de883d03cf2864b3d5c
:102df800f3db2d3c3012ccbc3019afbd17e9b93d1f
:102e0800b77ca83d5cb376bd6ad0e2bd91b508bd7c
:102e1800e4cfeebdb00ae5bd832ad8bd6e3759bef2
:102e28001cdf5ebd4ff7983dc362423a8c5906be1f
:102e3800a077d73d8a88b9bda269d43da4209c3b20
:102e48007143a1bd7abf35be97a21f3d478725bcf8
:102e580095d7a1bc7b9bd93dac3fd9bdcfe2903d76
:102e68003b943bbe0f9824be9e99b9bd97cfe63dd3
:102e7800227ac63d006a36be97df90bc8d8bc2bdf4
:102e8800ef3821be68c1c3bc37c31abe077185bd00
:102e9800efae0bbedacc09bde4360cbda82e09bdd9
:102ea800e41a963d7b8ff63d69ba83bdbcb5903d6b
:102eb800fd5b29bdacc73d3ca508053e5517953db2
:102ec80011f508bd52e81fbefb8818bd081097bd54
:102ed800075959bd12ef0cbeb40981bda8f38ebdc8
:102ee80074c98dbc282f8b3d24d044be296537bebc
:102ef800733ac4bd6cda05be063a403cc71e6b3d4a
:102f08001ec2553dc32536be5f0f893cb91340be6e
:102f18003e1c0ebd4d50bf3dc297a0bd353637bed5
:102f2800c54a88bde98c35bd1cb0a1bd9423c0bd80
:102f38005cc9ba3d111e99bd9f7619bee7fe45bd15
:102f4800257555bd99d504bd4a14abbc29c65ebdcf
:102f5800d4fe88bdb4c31bbec514b03de10435be64
:102f680053e249be0bd9ffb987b689bdbd80cf3cb6
:102f7800f1a805bd34c417bec38cd0bb126721bdf0
:102f8800545c0d3def0040bdeb1dbdbd98d994bc10
:102f9800d224bd3dbe85c4bd70f0b03d1c55f4bd06
:102fa800e36007bcd5f38fbc73acaebdc05550bc55
:102fb80032a027bd6a9ca63d7a1ee73d095a0abe83
:102fc800a2ee91bd19d4123af22b1abd5836613dc2
:102fd8008827e5bde16e18bdd3c5503d49d7e3bd8f
:102fe8005ce91fbee5120abe847a04be3a105d3c55
:102ff800847fc0bd9fd3a4bd26fc05bebaff01be19
:103008001bbf54bc1f4163be979570bd4b690fbd74
:10301800e38ac2bc4ca2893daa69c03d752f7e3d9a
:103028005b4361be0302aabc215346bed98b33bea3
:10303800694512bca16f063d0150e5bc80e4b1bdf5
:10304800f3d1a5bd0e3698bd7ac63d3d7d6742be1b
:103058005db5cc3c69f61c3d2bc654bad01df3bdfa
:10306800b2e21cbc8d7f0a3d58092abebc2270be44
:10307800636b00be8fb02abdab416abc744cfebd09
:1030880026d018bc5fa31cbd2492febd6f0312bee0
:10309800cc076d3a38f9e73cab6abebd100141bdbb
:1030a800fc0d14be206f2fbe541842beab0cc93b9a
:1030b80090798fbd8c1c603c9e23393d7c180fbed7
:1030c800f430d4bd4ae32f3d5d1cd93c994ba2bdd9
:1030d800525f2bbe8c1d753dfb43ffbc052f89bd80
:1030e800be2ed1bd677c1bbe7fa6c6bdc85749bcd6
:1030f8009f9ac0bdba2625bda248d8bdfda8123bdf
:10310800270306bd99cb94bdd13409be6c756fbc3d
:10311800e7a52cbe6e39d1bcbd54e3bb384ff53c96
:103128008f18d43c2b8cd33d23060e3d453d52bc15
:10313800062e0abcb833973caa6e06bea052393e8a
:103148002deac73c35a46b3ea9ecb43c3fecd93c16
:10315800f208893de993b2bddba2f2ba80b61dbd83
:103168005087bfbd4a4f883e334da43de8462fbe29
:10317800d8de0f3e5bc039bcd354f7bcaf0e133e4c
:10318800895854be3e503e3ca5502fbe99a4e7bb7b
:10319800bf57f2bc48e223beda15fabdacaa24bd7b
:1031a8004d66f9bd313e3e3eaa513d3d3d4468bea7
:1031b800597c93beef7d793ccde8ae3cde1d313eb7
:1031c800a8c999becabaa3bd0818413af4df9e3d02
:1031d8005894c4bc5e0850be3f39f4bd108306bc89
:1031e800ae5677be5359963c62cdbd3cd15b92be7c
:1031f800093ba2be9b6a82bc531440bd1968ea3cd5
:1032080030e0acbef40d49bd5a9b1fbd0b2f8fbdde
:103218000454053edfcdabbe4fbd62be9b58c1bb5b
:10322800f4ba01be394c05bed3f4803dec0539bf74
:103238007b4125be57d3d2bdb87ab4bd939af43d2d
:103248009932ee3b263c03bd571bb4be4ffe21be50
:103258006f1fb23c5db35abe994e91be907883bc45
:103268003ea039be66255a3e290904bdd702bfbe15
:10327800830610bedfa105be56600bbdd6ea8d3da4
:103288003dcdacbe05c3df3c0487a8be1fe728bd03
:10329800d1e5a9bcff7a1ebe4a57dabe6843a238f8
:1032a800bf6fc9be5fe107bda3df2dbead95ddbe13
:1032b80028b988be29b2cabd36be553c2c51ec3a55
:1032c8000c6108bf2f85e1bd479ec3be9b8f14be0e
:1032d8007fea9dbefddd56be31c6c9bef0b629bc2b
:1032e800dca80abf327dbc3d63e6b9bd0c5388be7d
:1032f800486bb9bea77ca7bc066e1e3e833e823dc6
:10330800bd5df0bef6fe82be7da94fbeb90697be72
:1033180040b4c4be70b482bce20f6ebea5f30c3dcf
:103328007195a4beee3ea8be31ee35bd5884fdbdf4
:103338004269c5bd50258c3d16212fbda026843d70
:10334800fdd8b9bef01395be145b4dbe7a7f98be0a
:10335800251ad3be94c8643e1e87e03ecf06e43cdf
:10336800a2ba483ed1aa4fbf13f70cbd6e8617bd4f
:10337800cb9e683eb7330e3ec0c669be0c65923d13
:103388008b104d3d3532a4bd54ee1d3e759e49be91
:10339800680ffebd55bf1a3e03b3913edb3ebf3cee
:1033a800b2a43c3d8a2433bddd8be53c845a2e3cd7
:1033b80016891a3e10dc9e3d66f8f5be43b1543eb0
:1033c8005491e83d772bf83b0d63c43cdfd4adbd89
:1033d800baeaacbd27b047bd426d0cbea941353e27
:1033e800f0d6c7bce0728e3d82aeb33d74c7733d64
:1033f8000e68893d9454573d42c76ebe0064183e1e
:103408004cfd613c400ce33c897351bd931dbabb34
:10341800ffa0debd053053bdcc5462bda1561bbe16
:103428005830993df02e2f3dbaca4bbd2dada33d66
:1034380055d0663d180614bd9979ddbd3e3f133e53
:10344800155a1f3d4b71f93d2ee2103dd23b613eae
:1034580073715c3ebef0b53d371591be4610a2bff4
:10346800df3d84bdbf141a3e892fb0bdab5c10bed2
:103478002716abbd7492543cb22c0c3f53b6d2be47
:10348800eba4c5bc68ba643eaef3c33c5518003e15
:10349800979f813c1450a0bd5e5670be11218e3d91
:1034a8002203a03d357a4c3e2dfe313eed557bbec4
:1034b800299983bc3d9014bd1263bdbd170cb0bde6
:1034c8002039133d6fbd043d92580fbedfa2cbbc1f
:1034d80031f903bd531613bf43f4a8bec07c6d3d3c
:1034e80048c183be54d0cd3cf26b79bb94213c3e9d
:1034f800e37cdc3d30d98abc9900633defab5dbe0f
:10350800507b09beb51b4b3dd7ba86bef3e55fbc01
:10351800e57581bc0f70833e30f541bef935813dbc
:10352800af0782bedcd6933d76dfbf3c4c4d1d3ed7
:10353800947c6f3ea73ade3c39af26becc770f3e6f
:1035480013dbf9bd0917b13d8068c7bcec9dc7bd49
:1035580060c6f13d384eba3d313a763ea38a413dc8
:10356800fe0a6bbe422e693e6624013e429705bea6
:103578007645a5bd0da320be48bb8abeec1c25bb65
:1035880036807c3d5a73163dc628023db8e440bedd
:10359800351b97bc4ab37d3dd19dcbba6ef860bd53
:1035a800558e2fbe87c26e3e8bc5ac3c138d8bbb30
:1035b8007b4cf0bcd98933be04d95a3dad5a463c40
:1035c80097e6083ed770903c968d37bee1253fbd03
:1035d8004998953d1c556d3ddd089c3e2b2ddc3de5
:1035e800618f8ebe8066623ea309dc3dd994073e9a
:1035f800a07a32bd42140abeb3fa353da2261d3d5b
:1036080035b7873cc787cd3d5a7fd4bd6329fabdfe
:10361800fe64b13d2dfa313ee3219a3cbfd35bbc39
:10362800c5be97be9ae8723ee45ab8ba7f3cd3bb8f
:10363800a21e8a3cf1fd44be75230b3e3bda06bd53
:10364800922e843d2ba7d73cb74535bd4760d0bceb
:10365800ee6fc2bcd12b363e5e34bc3d97a5653dae
:10366800c99d88bead3a973e5930043d89479a3d79
:1036780056de5cbd500dddbdf943f1bdfbb6a7bdff
:10368800cd08bd3d931206bd1b59c3bd8d84b1bd88
:10369800f2753bbc9ae4eb3d4de42f3eee7cc23d17
:1036a80015b6e1be049a843ec7d5d33d11efca3d95
:1036b80003a5363ca0789cbd0660aabc72ee5dbe30
:1036c80050d1323d583523bc20c3babd2378edbd57
:1036d800a1adc33cbfc2093e555f4e3ebe151f3c5f
:1036e8003120bcbee169ce3ec10b9d3d61a0ea3de3
:1036f800378f23bdd6fdecbdd539b9bd672155bd82
:10370800023b7d3cbf7523bd94a6debd054d27be9b
:103718003bf9923d706e4f3ed387623e4b0c153d90
:1037280093568abeeaa68a3ede06afbddf0bb73dda
:103738004e4a0dbdd14fbebcb6010ebe2d74f63d2e
:10374800b0b8d93dcfc455bc1d55d6bdfa1d12be63
:10375800a968de3df681a03e243a8c3dbda6843d95
:1037680019aae1be38de9e3c1862abbd8d5ecd3d28
:10377800630fc63dcc70973cbfc8f2bd23598dbdc1
:10378800857c253ef80230bd45c00fbe0efffcbd4e
:103798006a25903def19743e8924c83da666563dba
:1037a800ac62c8bd76feffbdb451d6bdbdadf73c19
:1037b800cc95a13dc3f8c93d594725bfc4f0a5bd67
:1037c8004e30af3d7d813cbe9e67b5bc4ec06cbee1
:1037d8009fcfe5bd4c1137bed53916bec5d90e3eb3
:1037e8006c92033cab34a3bd50e07dbe3c60f63d1b
:1037f800c951a8be304f5a3e379776bf7d59183cfd
:10380800c1ef3bbcd4e68ebe89a147be6910c7bed6
:103818004438ddbe307d5f3ea4e6043f40c88b3da2
:10382800e22bbb3e0f74bd3d8b418abcc527963e3b
:103838005d6c193eb4b1ea3d6b50e2bde8a0e13ed3
:10384800710c203db371563e5948243fb2fa6e3d83
:10385800a711e23d2bbc713e2a4f393fd0bf113d25
:10386800fb9b393d9408ab3ec655233e10b40cbeb5
:103878000b04d33c6cb4c53d75fc80beeb7c543e58
:10388800520d243f81d0da3d5cd61f3eb860f63d2c
:10389800567a013caa9c00be362138bee20c12be04
:1038a800e4cf6a3e1f3f953d36d1543ea8ea2abe72
:1038b800214f00bdebaf103d34ba53beb1c693bd26
:1038c800412008bdd9e9813dbd2493be4e30c73d96
:1038d800c52744bdc1dc25bdb422b6beb74a43bd29
:1038e800056b463db9a4cdbd6cdca83e618ed6bd46
:1038f8009e8000bda9339fbd274908bd8eb7a7bcd0
:10390800da62ec3c5f7e063deeebe8bd53bdef3d71
:103918001e2215be236f5fbeb13c84beec84bcbcc6
:103928000ace083c36ff7bbdb1d0523e5afe353d2b
:103938001cd2d4bdc753843d00b9a83d3ed7963d9f
:10394800b47f72bd14361a3d68a395bef9a2a93d8d
:1039580008c6f4bd9abd43bd6b8ce7be378422bd53
:10396800069148bd1aee753e14e4a13dba025cbd4d
:103978005629bebc456b893d37e9423d3adc2c3db2
:1039880045304ab9aaf3113de1ad4ebec741de3d0f
:103998005b079cbe1c04d1bde62dc6bc013567bdc6
:1039a80042c5f53cbf95853d7ef7003ebe3389bdd7
:1039b800eb9f41bd313622bca43769bcaafa15bebb
:1039c8001a91593df4f059bdd7da49be8a21d53d3f
:1039d8007e567dbd302d01be711a2ebe53d8b7bd9f
:1039e8006441cf3da75900be2cb1093edbd102bed0
:1039f8008ad5bbbdb0deb03d9025223cbdc384bd99
:103a0800699bbe3d049b92bb14ad0fbe7f14a23cc4
:103a18006fc6bfbda9faa2be93ae09be912d0fbe57
:103a28009c2bf13dc16a06be05f1483d8960e0bda9
:103a3800e1f70abe86f4423d55b4a73dbca38f3dcd
:103a4800ec59ae3d6a78953d570478be8567573d79
:103a5800418e9fbda85b38beb55b99be68da7cbe57
:103a6800a389263e6f7241be4cee1bbb41bf65beab
:103a7800e010f5bd92a3d1bcf987fe3d66c36bbdce
:103a8800e515a73dc2280d3d5f6888be554d553ddb
:103a9800434abbbd7c9281be0d1e49be363849be25
:103aa80032e88c3d115036bef66215bd1d0a81be46
:103ab800672be0bce41424bcdf621e3ec1c8dabd3b
:103ac8005e170c3b425cbebc32722dbeb08421bd79
:103ad800ecb05ebc5e314ebead07023c306415be34
:103ae800b744223d6f138a3d2686e03d4372a7bd49
:103af800074c30bd933ac53dc49da43cde1080be42
:103b0800643112bc81409dbd137d4ebe2a25f13c17
:103b1800e52202bdff2044be0e32d5bcb56063bdb0
:103b2800cfddcfbc131881bece000a3e0d74273df1
:103b38007b28c7bda2cc543d6f0fadbe6370f0bdee
:103b4800aa4ae93d5e29293d29d406beb445c53daa
:103b5800e820813e8291bb3d1d15a83ed26aa9bed0
:103b68006678203c03ff78bdbadfe43d3c404e3e1a
:103b7800460d803e0622df3d0d2e953df629533d2c
:103b88008ca4a53c88aab03dbc7f97bce3d6093f6e
:103b9800d90e1f3e0a9dab3d2a87ae3dba72c1bd04
:103ba8004fce07be46313abe8134143d4a11a6bdf8
:103bb800563c323dec1a55be745ebc3d37d112be40
:103bc800dd8710bdcbae2abe28cd0ebdb4cee7bc76
:103bd80099de3cbe59f0f3bdaced33be480797bc47
:103be800ef6967be4d532f3b4bb2a0bcd5c5933d83
:103bf8000309293d5b1c97bdc0ee8ab85de4cdbdc5
:103c0800bb6c513c73ce2cbd2ad417becc2207bd49
:103c18006a7c45bee7dcc5bdf66fa43dc6a52ebed1
:103c28005c036ebe265af2bde67316be5275a93afb
:103c3800fee530beb0e7023dc83f90bdc0ecaabd6e
:103c4800fd4623bef69ddfba0187a33d5aa645bcb3
:103c58003cd2803d4a033a3d00dbe9bdf6e46fbd46
:103c6800dd5f823deb5c5a3d9892e1bce4fde7bd27
:103c78004b54cbbd303b59bbe71e9e3c551f41bd45
:103c88000b8131bd561808beb58ccbbd835d8cbd8c
:103c9800d34307be3bb8e0bc401da4bdc496ebbdf2
:103ca800f60b3a3dade7343d8d4877bb6ce9853d71
:103cb8006ae2113df844293dc5a3ab3d6efe993d2e
:103cc80031d22fbe4856ff3c0d6c2bbed39993bd05
:103cd8009efce4bdb3529f3dd289b03d3dfd533dae
:103ce8005d0d52be8ebd18be2e745ebbcfbb813c2f
:103cf80030871bbe2ce593bdb352b83c3930eebdbe
:103d0800bfcba0bc08a09a3caed02ebd48ef62bd88
:103d180079becbbdf1e541bdfad21bbea811afbd3e
:103d280051ec85bc7b0b34be5a00af3cf11a4dbe3a
:103d3800a0f38dbd40b560bed8cd0fbef59543be8e
:103d4800ff653ebcf400013d78ce1fbe7b17003cea
:103d5800b7392a3c111be5bd6c62e7bcd97718bea0
:103d6800809b39bcf0ea6abde3c0cabbb349bfbd9a
:103d7800c37619bd696b833c1b3ac7bd2d1e33bd85
:103d8800cf7f753d9b3ec6bd81f1e6bdb9549c3cd5
:103d98003ae616be767fa7bc3e3227be5102ccbd9e
:103da800805b81bd9aef1e3d7621dcbddf2e03bd11
:103db800264de53bb8a1bfbd1121cb3c00bebc3da3
:103dc800695065bd876c69bea5ddb53c7939133d81
:103dd80025ea11be51a645bea38407bee4777ebd81
:103de8006804f7bc1c982cbe53fbaebd5842403d3e
:103df80070648cbd71d222be777bd9bc625a0d3dee
:103e08003a0815beee243dbe0f4c2cbed43001be80
:103e180086b609be28cd8d3de79a043c71dae8bc28
:103e280064998abd7f9dd7bdc64584bd5eb6a2bdd7
:103e38002c3f51be413ff1bd902ed83cfe5240bdb3
:103e4800261b1dbd77dd57beebfe063d3296393d7c
:103e5800f4b226be1ac710be5cb8c0bc2a333bbe3b
:103e6800dd2aa8bdb7a272bd3ddb113d7d4600be6f
:103e780008f0223d69c714beea65cbbcca9f9e3cc8
:103e8800283109bd191011bdfba903be30972dbefd
:103e9800d94c15be2935f9bddc4a3c3c2f4442befd
:103ea8002f0667bdaa8426be1dd8d7bd841a88bb35
:103eb800b90c3ebe19380abefe4be1bd867c47be32
:103ec80033857fbe544267bcbdd517be7039d2bc9e
:103ed8003d74bdbc38960abdcc73f0bdd7d8ea3c5a
:103ee800c4a03cbe95212c3d81c376bd0e36c5bd10
:103ef800ffc4a03d26af06be462a32bec9d0dabcf2
:103f0800f23083be33666dbeda1490bdd5a516bef9
:103f18005f4127be8f79be3d9aa980bb075333be48
:103f28001eb894bd6fe2783dea836d3d072d3abe19
:103f38005c8fa4bcf2b9c8bd494a4c3c9069f43cba
:103f4800a4aa3ebe826027befa9c0f3df98b14be20
:103f5800cf1cf6bd4f8a1a3d4dba4a3c7b1b98bd13
:103f6800fd3d643d3e05c53d0d1043be672a06beb6
:103f780035d0bbba3d6f64bed15cf43d4c13debd99
:103f8800a35f933da363afbb8e602cbe65c641bee5
:103f98004d1635be94c705bd51fb28be4677a93dd1
:103fa8005cab973b694f1dbd1a88a43d3354553d02
:103fb800b4ee34be5e3621bdc07c9f3dee6089bd47
:103fc800156cdabd497cddbd091d963caf78753da1
:103fd800b039f1bced4cdf3d11861e3d6ce49c3cd4
:103fe800e5b4593ddb17463d557283bdb2d90fbec6
:103ff80014598f3d2fb2823c8e391abefbf2b53d63
:104008006dd518bee9c96a3c5bc6fdbd8976473dda
:10401800f6b2ec3dec119dbb7017323d748b33be8c
:104028003ddd39bee472ddbd2562e1bd138e8ebd76
:104038000eac34bec099a1bd6f10013e0efa8abd08
:10404800a7547bbd02c7963d672dc23d8c1b17be8a
:1040580011b8bb3db6da0fbe79f6d5bd5a07053b98
:10406800fa57223d6c5e02be28240ebe85e614beb9
:10407800cef9ccbd33a406be50e204beba6e7c3d78
:104088006ad642bd707c11bec5d831bd4e90823d06
:10409800a94a6b3d7f6638be3b46dc3c6d542fbe5b
:1040a800e47f0bbe6789e5bc286aeabcb8fe093d17
:1040b8008cbcd0bdad2a963c599d6e3c6bc197bd5a
:1040c800ecb232be68d355bcb20685bdc241b33c22
:1040d8003c7a0c3edb8e4ebe8114313ddf20023d22
:1040e800cdd887bba6c4963d5405a9bd6c25353de2
:1040f8005447fcbd0c635e3c4ebab7bd35292b3d19
:10410800d87ff1bd9c7286bcdf27523d39f65fbe71
:1041180088e838bd0c0fc0bd6189adbd5220f7bd20
:104128001d278fbc0d3c2abe4d7dc2bd2271633d4b
:10413800612623be63661cbe95b424bed7c0813dec
:10414800a3e1bd3d470701be77651e3d670a2ebe48
:10415800a200c4bd32aeee3c75024abe60104e3db0
:10416800e2d63dbeb08ec1bd8a54f0bd57391dbee2
:104178003d31d63d60958ebcb630d8bdc65232bdf5
:10418800a3b9d3bd54049dbd024586bd80dc85bb63
:10419800f2222ebe4266b73d6f93b63d22a6d2bd2f
:1041a8001f719cbdbdfc48be4ef8fcbd229a80bd67
:1041b800f668eebc3e770fbe448ee03d2b6c8dbd9d
:1041c80034d2fbbdcc7424be89501a3d667d93bda4
:1041d80087483bbeaafc6ebd841ca03cc51e653d3d
:1041e80054c3623d2865b03b076a24beba8a213da4
:1041f80017be97bc309086bd7ab4a1bd4d414abd6b
:104208005b7d4cbe98b7a73deb1ce9bc97c3d4bdfa
:10421800df537b3a150f4abe65f20bbd9f211a3b4f
:104228008c7f0cbe506ac83a5693f9bd994f1abe96
:104238008c611bbe02515bbd65a41cbe372c5ebce5
:104248003c24fc3c47b2e53cd1c7cbbd88f143be1a
:10425800e7b5d23deca357be11e030bb3df437be05
:10426800819d2fbe38663dbead19703c0284853ce9
:1042780003259c3dde6019bed9faf13da4d632beb5
:104288004c6230be512899bde75421be8b0c78bcd6
:10429800cbe0f8bdbbd3e2bdc4ab4a3e191b62bc40
:1042a800277a013dde47f73d8b03563d2d5f88bedb
:1042b800aa91c8baab3d25bda88111bddfeadc3d96
:1042c800373b583d34291fbe8190c4bd7cf36a3dfd
:1042d800552020bed89e4bbe4e3801beba8f0e3d2b
:1042e80057ee41be901eef3d454b68bd28a938be2c
:1042f800dd7724be056304bdd3abeabdbda570bea2
:10430800e1b132bee3aee6bd64caa9be9ebf22be1d
:1043180039f054bb1bcfc0bc95259bbec6deb23b53
:10432800cf3f40bddaf809be1d7cdc3ce5bcc43d8e
:10433800a21ed93d7d35c3bc9f5d63be65b030bd4f
:104348006f1d97bea3dd03bea74770bd13accb3c62
:10435800d3cbeabdb1df4cbd1d2a253edf500e3d53
:10436800abd18cbd02cc40bd2427103d750e02bddb
:104378002cf47dbd2ee532bdbff665be3f1a37bdb4
:10438800057391bea3408abcc2d6c93d210392bd24
:1043980097ea333daa81683b5b83c4bc0aa9253de3
:1043a8009b2c25be143eac3cc12308ba8b1ebc3dd9
:1043b8009746303d260d65bea68a413c15f2d3bd11
:1043c800fac8f3bd5f15433dd39361be928bfabc27
:1043d800ba67253d845edcbc840d2fbe887b80bc1b
:1043e8005d2464bec5ece43eeb0bda3dc1b1013c93
:1043f8006db4d5bda8f88cbe3c262a3ee6c3afbd39
:10440800a2328abd7285253e188da7be6ad1f4bd39
:104418007bd81c3e8fa7e63dbab7e93d92ff1b3912
:10442800d6eba9be4e35893e2286ce3d9139393d1f
:1044380089387fbdbd8195bec3fca03c39dc593da0
:10444800fc4982bd4394f63d8d267ebe72aa00bd0e
:1044580019c0d33d19f2313e1509153e8a2321bef4
:1044680031ea87be973c883e952ed4babf26223eb5
:104478006f2eb63b97fd6dbedb4a5dbc640b07bd76
:10448800f04fd23df16e083e7aae2dbe17a36d3bbc
:1044980020ed043e5aeacc3d2506a23e3a033ebc36
:1044a800a12570be8725773e5bc3b6bcaeab0a3c80
:1044b80011129b3de48b7abddc8e303dd1a4e0bd6a
:1044c8001fe58a3dad0edf3d20659fbdafa135bd1f
:1044d800a564a83d2c9f0e3e0a1fbe3e56b81cbdc3
:1044e800f3ee84beb6052b3ee09a333d027fca3c0c
:1044f8009785e23c3afabb3d2c240a3e016d533db8
:10450800fbcffd3d4161803c09b0693d613815be76
:104518009760f9bdcde6393eb0ae5e3e31322a3cf9
:104528009ea0a4becdb62b3e07b6463c44a02e3d69
:1045380068106dbde3cede3dcabe043e272d113e98
:1045480063ca853d8951c7bd00dca93ceb096ebe35
:104558009f9786befa44e9ba054ffebd442ed3baea
:104568009031acbe4b71bcbe9c9e3ebe7e256a3d62
:104578001ebc39be16cb103e8a6330be8e1321bed8
:10458800d896f3bd85ba0cbec9d697bed1a014bec5
:10459800d316a8be6c1aa5be6b6f81bdcb80c53d76
:1045a80071fe0bbd3287bebe0b640fbee72f3cbe4b
:1045b800c1e228bda45cd83dfc5fc1be95909ebefb
:1045c80017fbadbd9130ecbdafbf433cdd6755beb9
:1045d800f9258c3e1b3c0bbe0b3585be7cc23f3e8d
:1045e8002f5ef2b9151ada3dc6503bbe9d9dafbe8f
:1045f8009d8e34bd51222fbea260aabe5d8a943c16
:104608000db3fb3cf13ce8bd588220bc1ae6b5beb0
:10461800de09c23d83aca93cf22258be711c443d60
:1046280083dac1bd1bdb3dbd9a3da53d99da96be37
:10463800bef8e4bd975a8e3d90c83cbcfdcc1dbd6c
:104648006cd972bd2059e7bd96bf2cbe35836d3a33
:104658007b12b8bdaecd133ec67789be780ca53c9b
:10466800a1d274be3835d9bd6d6bcfbdb6b322bfec
:10467800e32c91bec5ce163d605473bd605b46bc4d
:10468800b6e122bea6e4cbbd24ddafbeec5d24be00
:104698004cf750be1c47bbbcbc5c83becc3f4c3dfa
:1046a8001ca07fbe4de195bd2afd96bc9fb18e3df5
:1046b800ff4df1bd787c373c1b0d9abd5ec093bea3
:1046c800f2862bbf898b7dbea3a608bf393819bed9
:1046d800c8db8cbe78361ebe04b453bebab28c3d5d
:1046e80008bb75be98922abc2b5e06be21fe093b0c
:1046f800b54dfebe23b74d3ea7882e3c612c3fbe6c
:10470800f95036bfc52635be5045b13d3116debd20
:10471800e72ce6bd9baeb13d24a9ad3c9a3a983c46
:10472800fca328bc494584be7f977ebdbfd43f3dce
:10473800fc7fb5bc9b939e3dab889fbe44e4a0bd67
:1047480082131a3ea0df0abc5c2006bed12a53bde4
:10475800d0f12bbe3ded4d3e85fcf9bd674c11bd3a
:104768000b9640bc581618bd2334fe3bb6fb8b3a5b
:10477800ea06953d10cda13dc5714cbeb153813db2
:10478800b447133e946e17bd5acb8c3d83493bbe4c
:104798002ea617be9f1aa93dc1afe43d315932bdbf
:1047a800e4f4613c1c13e73d51cf80bd9824f3ba73
:1047b800e8298f3c38735b3dd20a90bee9bb8f3d38
:1047c8008ba2693deda36ebdfc9115bee4f282bdde
:1047d800431f34be3226db3d1b8c823e31a0823c17
:1047e800fdf9303d430a493e39259bbd4970d53c0a
:1047f800850e22bd42fe843d4a16cebd931bd23d96
:104808003db3203e096f123d15359cbd57fb86bd53
:1048180084ada9bd4d00753d0313bc3c8e74bf3cef
:104828005cbdac3ca142c5bcf473993b05e36a3d51
:10483800141ea4bc7e6d013dfe099abd1e4fa53d08
:10484800097c113da060ce3d6d502dbc6df947bd72
:10485800e980debc78dbc13d6270873d14e15b3ed8
:104868001a00a33a3e190c3e52d9913d521cb23c53
:1048780064746d3dd012163dcf02c3bc7a0aad3dbb
:104888006f3fa23d192d003e7fcbddbd0e7c013c64
:104898000001e6bdc36a1bbca7ff97bdd984f7bd5d
:1048a8005a3b11be91fc3c3de19caf3c6977003e10
:1048b800fdeebb3d0652b6be1e8e1f3d2fc2cb3e3f
:1048c8006adb313dab2dd03dc7f591be654d133e3a
:1048d8001024cfbd40de08be125d71be5db2a6bf1a
:1048e800537a2fbe47f8513d4358c7be5e8cebbc88
:1048f800dbbf36bed8c153be6250df3de0dc883d29
:10490800fc2ebf3d189d6e3da803f2bcd93b313d3e
:104918001e09f33dd85fddbd862263be8c13b0bf90
:104928006a7546befd035a3e6103c3be8778b8beaa
:10493800506c8bbd0b2086be27fd093eec7451bd23
:104948009b46bdbc4f6bad3d85be9dbeb04d9bbe6d
:10495800f63fc0bb8132703a9b91aabe55997cbf85
:104968007aac4abe47f4aa3d0db4bbbdb36683be5c
:104978004aafad3d368148bfbd08553eb347cfbeaf
:104988007c6b82bce019353c05792d3c7894623cff
:104998008026e63e2f2b0dbece6d03bee34718bd25
:1049a80051319dbd135a8a3d97149abcfef89abda1
:1049b80072249bbda57de0bdb2bf7d3e44bef9bd5e
:1049c800d853ef3c9a0cfbbd1b7b24bf9a194d3c76
:1049d80084b61ebe5511573d722582bd0d3bcb3c9a
:1049e80015c6383ec2138bbe133f44bdfda6ec3b33
:1049f800fd2c2dbd70dc0dbe9167903e3ae41dbec6
:104a08000faa72bef9f709bb19ae93bc5f295bbd4b
:104a1800c8130d3e1064cfbe68540c3ebf9cdf3ceb
:104a2800c5f3c53c9d2ca83b5c7974bdaa553b3d9c
:104a3800c0fcd2bdddbf8abd4932993e4cfc60be88
:104a4800c5192bbeb887973dde93403e4c60db3cd2
:104a5800ab0abd3db9dbd1bd7ae30fbe361c00bc45
:104a68001e22bd3d3560223e96d564bea47b873d9f
:104a78004a4aae3dc0a66c3dc726473e9c973e3e7f
:104a88003c8114be99b0663d41f282bc43791f3e19
:104a98006c61903d9581b83d683017be6c5f20bd54
:104aa8002403cc3de5e12bbe1f4268bd51e02f3dfc
:104ab80074fff03d92bebb3c9ca92fbc33dd1d3e6c
:104ac800058a5fbe304b563c640c423ecea630bdd4
:104ad8008ccc293e0a83543d5ef6b83cea39d4bdf5
:104ae8005af2a03d0e5b59bead473fbe2bddcc3c14
:104af8005bf8f83c70de8d3d447472bc5647a03daf
:104b08002281fbbcf0dc3bbd84e8013e67c4c93da3
:104b180089c42e3ef15011be13789cbea316e7bc83
:104b280071f79f3d30e0b8be025080bd93017d3dd6
:104b380037d7be3dfadabb3ddda48cbc64f7243e12
:104b480018fa90bdb8503e3d29f3313e98fcfd3c23
:104b58002f27113e8172743cf7f29abdc1dc30bd3b
:104b680095247cbc5d1b15bee5e17abdd5a125bcad
:104b78008a2c813d1703de3cda462e3e483e503de6
:104b8800363201be45721e3dcdbeeb3d8e04fd3c66
:104b9800f45bce3dfc6eb0bcb6f60bbea470613db6
:104ba8002174033d98e135be58bb17bd264a1abc8f
:104bb800bef7b43d633686bc05dd6bbe4ebb403eda
:104bc8004b4c03be3e52ad3cbc713f3ebe5b3e3dce
:104bd8005f43093e810025bd38ad07be18534d3de2
:104be8004c43613d0ca107bd4ebaea3cea7201bdd7
:104bf800c041813de1815b3d4cb697bee70ba5bc4a
:104c080048f232bed2da843d8c5f5e3ea1c7023ed6
:104c18000cc9313e80d2723c21712f3d696fa3bd12
:104c28008e40d23de0c89bbe47500ebd5b11a7bd6c
:104c38008e8b3d3ea3c7ac3c391c62bdee8284bd61
:104c4800c71b80be74b2cfbde73f803e4c39643e7f
:104c5800fb88d13d872fbe3c20d9a13d56a41abd63
:104c6800e4ef2a3e283066bef64888bdda2673bed1
:104c7800867c3d3db65121be593945beb5f18bbc48
:104c8800f20c8dbe38947abe38f4dc3e5049a93b0c
:104c9800adced03e09897cbe220b233e32e26d3d6b
:104ca8009363a1bcd8bf2bbe036685bdb16405bfa5
:104cb8006273023e64d33fbe5ba581bdacaefb3dd3
:104cc80014e342be82e48cbe938afd3ed5c6dbbdaa
:104cd8003eb8df3aec0c96becce500beb958063ead
:104ce800550122bd7120a9be5decd8bd749fe8bef8
:104cf8005f0408bf330159be2fca3d3cd6ba4ebd2a
:104d0800becebdbd1f27aebe001d023b648951be8d
:104d1800dcd538be6d7451bdecf81dbed2dc1dbead
:104d2800a58347be9e832ebe4b5b5ebdbb713dbe59
:104d38006e3701bc2382debd75103dbe4e0b6dbdc6
:104d4800add351be40b44e3dd01446bd969f143be2
:104d5800926daf3c8338e23d0e19e3bd7cf94abe43
:104d6800183eef3cf6e15fbd570015be62d6a23d86
:104d7800afad393b0a486ebd93d2a8bd566672bc2a
:104d8800c87273bd09fdbabd46cd213d27b5ae3dfc
:104d980016b607bd5d77a73da908dbbdfbca1ebed9
:104da800e35fe63c8c4ecabc6ef44ebe1545283d0a
:104db800278180bd7c6db33d42afb8bd664f9bbdba
:104dc800c685b33d783f13bedd23e73c211f32bcc7
:104dd8005c0ede3dc3bc6d3c26e521be3dbe0abc73
:104de800676205beb3daa73d56e4adbdbbf0a0bd12
:104df800fa95273d7f8b9fbdbfe73ebefebc71bdc8
:104e080003903c3b788d01be430b07bdcfa005be88
:104e1800f37dcd3df3db32ba7100eebdfd8c1f3d55
:104e2800d898b2bd519d683d8b76a43ceb343fbe0b
:104e3800800ceb3cef6f09be0471b5bcfa5331be70
:104e480094f875bd939673bdc65525be01359bbdb7
:104e58009530483d6f3e7f3d810623be294182bb88
:104e68004fda903b179267bc371e30be4b99b63c61
:104e7800e1db2a3d746d50be48e09e3dd344cebb75
:104e8800d4b720bd0caf10be0ce14e3dbef9da3de3
:104e9800de3adebcd0931b3d7f3af3bdcc629abcb0
:104ea800910a19be4764e1bde766d4bd046e06be2b
:104eb8001ae83ebdbdcd21be6c1396bd62b705bdd7
:104ec8006cdad6bd4c75e3bbe6135f3ddecd03bda2
:104ed80028c6ccbd730be23c403c0b3eedbcfdbd8f
:104ee8007782933b79be023ea7a939be040ea9bcbe
:104ef8006200073c2a459dbdd819d33d8d9fd5bc7e
:104f0800cc7c3cbef159823a9f7c08befeb12ebed5
:104f18000011bebdb80a573d7876d03dcb9955bd36
:104f28001e3f9d3cf9e41fbd47652a3d98af32be40
:104f3800d9db9bbd16033d3d7e94963d9ca5843de3
:104f4800ea1ea4bd75ea0ebd65a68abdcecbe2bd3c
:104f5800e2d0143c942b0d3cb098963c7b06f7bdf0
:104f68000f9f99bd3aab813dc8584dbd47dc41be46
:104f7800cc1ad5bd5dd0bfbc4fb5ddbcba427c3db7
:104f8800822a5dbe69cc0c3d030e1dbc086226be9c
:104f9800cf3a693d0f370c3b1fd600be8b1bfb3b3e
:104fa800d7480abee8edf2bdb57382be7226c8bc0a
:104fb800e3a4083d49bd793dccaf68bd4a79cebd73
:104fc8001c2fe3bdf5225d3c03fd16be90739ebb0e
:104fd800aa00d2bd5d670ebd1375a6bc778a5dbdfc
:104fe8002fb014becad182bd6282f5bd1a4938bc41
:104ff8003fcda83c2582dfbdef742abd0d6545beb7
:10500800e29870be19e7f9bd14c2a7bc0c41883def
:1050180011dc93bd7b88a73cad5aadbde0303fbde8
:105028003d38bfbd5311873d095071bcbb0a2f3ca9
:10503800072aa43d9365aebbebbd113d83b3d4bd38
:10504800ca7ba9bdf358dcbd3c7837beb79c01be0e
:105058000eb92dbec1263d3cb682563cfa8a83bda8
:10506800e1ea54be25995d3b35d7813c472357bebd
:10507800ae9f12be708a90bd8c8c903d8aab08bce6
:105088006de6ffbc49d64bbece0a03beec9255bdb9
:1050980053d9583cda714a3d838ed0bc4ca3b9bd74
:1050a8006498bebe7b90413c35d007be257517bfbe
:1050b800f0bc59bd8cd509be31edac3e0dae37be46
:1050c800e063c13cbc5f3bbe7d191fbfba8da0bd6c
:1050d800ee0e4abdf250ab3e1f9d393e00991bbdf6
:1050e800fb909cbef2ff0ebe0ade283d11f9b4bd4e
:1050f800783880bdc84902bee0b62d3ea10993bdef
:10510800ebce0cbfe5c363befa55813d707c98befb
:1051180018b3aabea2ab32bd367c4e3eb89e293d1e
:10512800f9d3dcbd2e1bacbe872ca5bcfe34ac3d30
:105138006724c9bddd2807be9b67793e34c06ebeb3
:10514800167333bfcf8b19bdfacb8f3d2b3799be62
:105158007890bbbd22b2c3beebd96ebdc07babbbe2
:105168008b70043e8c9ada3cc0134dbe34f5b33dc7
:10517800be312dbedaf793bd60fb8b3e0eae21bc6f
:105188008e7db7bea237e73d168a2ebea2a9323d54
:105198002315813eb981283ec3c1523ba4e2003d9c
:1051a800eaa00a3eee8cd83d95ce09be58f539be28
:1051b8000cb53c3e6a343cbedf9d543e2afbe83dbc
:1051c800805147be6ee5b83d1c48073ea679263e8d
:1051d8004602043ee661f83d5d437c3d9fab1dbe43
:1051e800c337383e76016dbe56c2a7bddea055bd99
:1051f800bbdad03da3a438bc4e49103ea631a4bdad
:10520800037293be6f0d86bd057fa13eda61c23d74
:10521800e58db23d4b95463dea1520bdaf6396bd81
:1052280041675e3d1c8114bfb4fccfbde02d793cc5
:105238003e06843d5f90853dbab26a3c0c53473dbb
:10524800598117be6b35053dedbb123eb103703d6c
:1052580028f3193eaa149d3de53cc7bd45e542bd6e
:10526800b8f092b9d0f3a7bedc6a01beebb2fdbdbf
:105278008b73613da500863d8166d53dfbdb273eee
:10528800d1d118be31cc893d6bb9723e1f4f623dfa
:105298008b57023ec7560cbd214a74becf0b6cbd5e
:1052a800d3c8953df8af35beaee1b4bd496e66bd15
:1052b800372fc23d39c8e03bfe0994bdfc434b3d46
:1052c800ec5a66bebb44523ca628883e2658353e5a
:1052d800d43ff63d666c6bbd2b078bbdea1e0d3dba
:1052e8008104083e83256cbeb2ddf6bc2e2517bdb1
:1052f80085fcc23dc255743d6a9d34bd4735f93db4
:105308001fbd76befe3e763d4c4a563e348fb93db3
:10531800a6f1353e19e1e6bca48db1bd07ca573bdd
:105328008bef063d7d4b5bbecfc6abbd96b9ac3ca3
:10533800e16ec73dd57e10bd210efebc09b960bd2a
:10534800fdd542be28a11e3dfc72483e5ecaf53d11
:10535800337ad13d5029c43b0559edbca5f184bd34
:105368001218a63d62d547beef48b13c26744039b5
:10537800be733e3d3eaa8abc509483be486ca43d91
:10538800f34235be64d1d83cb343663e1fd1de3dff
:10539800d60a023e6e7ff0bdb7c58f3d6471b0bdc1
:1053a80089c7b43dd754a7bd68ca11bd17a11fbe90
:1053b800c8b8203e012fd63c47d644be850f883a50
:1053c80081b906bed05c37bee0a5403ec06dff3d4a
:1053d800ce499f3e3cf05bbeea3e4cbe233eaa3d12
:1053e800ebd9d33cc44219be253cb73d4b31e2be94
:1053f800cbe879be66ab79bdb3d9b9bdf86d6b3d65
:105408000e54e6bb420abdbe2cbb163e04ec7cbe65
:10541800895b383ec30a06be0bd853bc0eb3a43d05
:10542800731f433d86cceebd7d44213e50f03abe0d
:1054380028ab25be2680133dc8f35dbe13cc353d91
:105448008dfbc4bce174fdbd743d45be1fe9893dbb
:10545800376b87bc38c1a5be8d87963dd7714b3d4c
:10546800c006afbcc10182bcc674253ed47fdcbe79
:10547800c79058befd6e443d1f60a1be5a320b3e18
:1054880013ede6be032b70becfb2f2be4e0481bd53
:10549800d471a0be72ef2cbe4baaa8bdfee6ee3dad
:1054a8006ff3f1bd5070d73d51edb33dc2f7edbd7f
:1054b800709f2ebef7af023e46288cbeec6800be39
:1054c800f3921cbf333478be8bf445bf25c3b6bdf9
:1054d80036a3c4be72c4d5bdd61ec93d95ca453dc6
:1054e8000709c5bdef4a1bbd3bf107be079593ba37
:1054f80089f071bc73863f3ebacf303cf25764be28
:105508005643d7bbc0f1a6bca51dcabdeaf178bdfc
:1055180072477ebd30b4093efc3b013c137a713db5
:10552800581ee7bdd079c73d13f432bdf07836bdbb
:10553800e4650a3df4d33e3ce51e7bbeb58522be3c
:10554800d3d8c83d509488bb90f31c3ea949393c38
:1055580033b057be756c983d73930fbe6a9f53bda9
:10556800a55bee3d13ca27bd13442f3ca85880bd48
:1055780098539d3b1ffe893d4e8e8ebe53370ebc01
:1055880036ac4e3e6a05ebbc9ebe9ebe3125cbbdf9
:10559800de473fbe8afc0a3dd347d93d24833cbd44
:1055a800fb9799bc3fa73b3ecc40dcbcdfab69bd59
:1055b800ee8a1ebcd924533d1cc12abdeef3733daf
:1055c800b27e863de774d1bd0e5787bea085f7bd74
:1055d800eac093be33a2833ddf5c003d0da44c3d81
:1055e800867e11bd3b902fbb896c52bdd83a0cbc4e
:1055f800ecd4b9bd24a1b83d8a985bbddb89db3cfe
:105608002616e93d69443bbd3a36b5bd44c186bd61
:105618000818ecbd0739853dc53ecc3d49c9a7bc36
:10562800e99a233dc8e6c6bdbd50b0ba5549d1bcbc
:10563800b293b5bc235b293d6a3d11bee9d6ba3d9c
:105648007803943d1c788ebd03c487bc2261c4bd19
:10565800ab4104be85b2183d22c3403d2328203dfe
:10566800c96ccd3c53e0493df546c9bc4ea06e3ce3
:105678003820513cd233a23cf39a00be1f82903da1
:10568800fa40233efebea2bb18b300be3a7a2cbd38
:10569800498502bee87d9b3c3e7fb4bcee5feb3d96
:1056a8002c4f913d5bbd083d66b90b3d1fbcce3c00
:1056b8008e4780bc87d3303c642c953de4420d3e38
:1056c8005a05393da25e483d9c87d0bd9376c3bb41
:1056d8008ccddabc6e250abdff039abd4067d9bde3
:1056e800bf7ed23c3527b23c098148bc8043ab3ce5
:1056f800ccffd2bcf87020bed9992d3e759e773e5e
:10570800852c673dbbcd753dde1f07be35927bbc42
:105718004e224f3cc09f58bd78050dbe5c898fbf97
:105728002e4edbbdab6ae53d2f9f07be7df656bd0d
:10573800b9a569be5dbc2fbeb520723e45fc8a3e48
:105748006835553dd44c383e954492bdc9e90bbdea
:105758003fdc1abe0cc1543efbb2fdbee6a0babf88
:10576800212f07beb151863eb73112be4d5b0abf2d
:10577800b6ecd93d895b19bf1a703f3f6522c9be97
:10578800871c583b1b6da23ef62fc0bd065f0e3e20
:10579800f016543ed079313eb9686a3e2684243ddd
:1057a8004b405bbda9a82e3e5b65433e8643823ec7
:1057b8007e3c413e2909623c29cbb63ad8f4993e51
:1057c800270a063e100eae3e7810953e2775313eec
:1057d8006654c53d36c8623e34d6bc3e02850a3d95
:1057e800321223bd605b1dbeeb9fda3d3e1539bd0d
:1057f800611cfcbd0e708a3d5b5381bc79b3ce3e03
:105808008ed0003da8533a3eb0908abc4448d7bddc
:1058180083c798bda256fabd04e7843e1fe2093d3e
:10582800aff4a4bd739d90befbc1053e00bee8bdac
:10583800a2678bbeabd4b33d9d708e3d99b3b73d87
:105848004b5b98bd12a0943dcbbb86bdfb282cbdfd
:10585800c9b25abe898e28bedf97ad3d2e58553c39
:10586800f4eef4bc2d3f97be4780bf3d704f19bd85
:1058780071ec22be2d78ca3c8c65eabc4cdb5bbc63
:10588800818985bd5ab07d3d949b42bebe353f3d62
:10589800d5a15cbebf73aebe3b05033d883e7eba54
:1058a8007514f4bc3b6831be8e1cdd3d662754bcc4
:1058b8000c25c9bdf6d408bb86cb7cbd9aad04be09
:1058c800e79519be63657f3bed1ababd80fcf53cd0
:1058d80088e48ebe7cfe36be5b6a2fbd56a0ff3cb8
:1058e800ff6e8d3c60d1b6be4bef093e960114bced
:1058f80084d181befc3e663d099aa53da76631beae
:10590800c37788bed89f263dedd549beb2fa02be00
:105918002d027bbebdbe6bbefa780e3e77ae0f3c45
:1059280056afa0bd6ae5d3bea198f03db60cc1bd87
:10593800d2f07dbe14db61bcf81523bbb061c7bbd8
:10594800f855f6bd7d149b3cf0221cbe3b91a3bdcf
:10595800cacc68be592e93be92d067bc733d733bc8
:10596800c5db0cbec1626ebe79af303ea61703be62
:10597800431850be1f1f5cbc0a2b553e64a9883cc7
:10598800c81700be58189cbc725062bef619a7bd55
:105998009c4082bef13bf7bdbd82b23d8a07bdbacd
:1059a8003214a1bd852a7bbe1fae063df1dc19beaf
:1059b800de4472be7d761ebd5a2ba6bc2e67153ef0
:1059c8002655c0be5d7fc9bd2bc8fdbdc09316bea0
:1059d800e2346ebeec15a5be9fdbf5bd1a96acbcd5
:1059e8007d8506bd924dc8bdd5a0c53dd7e012bd89
:1059f80071f663be38a0583c287df0bc5d6c14bebf
:105a08004dc888beb245bbbd6f6925bd5c1fc3bb11
:105a180073dd79bd1e6144bcbbe869bdc91d6f3d1e
:105a280090beb2bca61e9e3d7990023d1863fbbb9a
:105a380017d181beda61863d18d5aabdf8622dbea0
:105a480041440bbe1e7ea0bd586e563cf3d59ebd8c
:105a58005e65a4bede9d98bef80056bd060320bd57
:105a68005e8355be388088bd8c43a1bb1a393dbec4
:105a78004759d0be06658a3cc3aa7c3e840602be4e
:105a8800e20ea6bed87c14bbf25989be64bab8bd72
:105a9800245b37be73a5513ce4a1afbd5bca0c3c87
:105aa800c36c40bc367b0bbe6381bfbd6ab07abe97
:105ab800892394be6a61013c18f99a3e5093b3bc9d
